{
  "contractName": "PrevencionDesastres",
  "abi": [
    {
      "inputs": [],
      "payable": false,
      "stateMutability": "nonpayable",
      "type": "constructor"
    },
    {
      "anonymous": false,
      "inputs": [
        {
          "indexed": false,
          "name": "error",
          "type": "string"
        }
      ],
      "name": "mensajeError",
      "type": "event"
    },
    {
      "constant": false,
      "inputs": [
        {
          "name": "id",
          "type": "uint256"
        },
        {
          "name": "day",
          "type": "uint256"
        },
        {
          "name": "month",
          "type": "uint256"
        },
        {
          "name": "year",
          "type": "uint256"
        },
        {
          "name": "latitud",
          "type": "string"
        },
        {
          "name": "longitud",
          "type": "string"
        },
        {
          "name": "caudal",
          "type": "uint256"
        }
      ],
      "name": "hacerRegistro",
      "outputs": [],
      "payable": false,
      "stateMutability": "nonpayable",
      "type": "function"
    },
    {
      "constant": true,
      "inputs": [
        {
          "name": "id",
          "type": "uint256"
        }
      ],
      "name": "consultarRegistro",
      "outputs": [
        {
          "name": "",
          "type": "uint256"
        },
        {
          "name": "",
          "type": "uint256"
        },
        {
          "name": "",
          "type": "uint256"
        },
        {
          "name": "",
          "type": "uint256"
        },
        {
          "name": "",
          "type": "string"
        },
        {
          "name": "",
          "type": "string"
        },
        {
          "name": "",
          "type": "uint256"
        }
      ],
      "payable": false,
      "stateMutability": "view",
      "type": "function"
    },
    {
      "constant": true,
      "inputs": [],
      "name": "getRegistros",
      "outputs": [
        {
          "name": "",
          "type": "uint256"
        }
      ],
      "payable": false,
      "stateMutability": "view",
      "type": "function"
    }
  ],
  "bytecode": "0x6080604052600060015534801561001557600080fd5b5033600a60006101000a81548173ffffffffffffffffffffffffffffffffffffffff021916908373ffffffffffffffffffffffffffffffffffffffff160217905550610968806100666000396000f3fe608060405234801561001057600080fd5b50600436106100415760003560e01c80630af40a99146100465780634a90b0611461017c578063a28fe68c14610300575b600080fd5b6100726004803603602081101561005c57600080fd5b810190808035906020019092919050505061031e565b604051808881526020018781526020018681526020018581526020018060200180602001848152602001838103835286818151815260200191508051906020019080838360005b838110156100d45780820151818401526020810190506100b9565b50505050905090810190601f1680156101015780820380516001836020036101000a031916815260200191505b50838103825285818151815260200191508051906020019080838360005b8381101561013a57808201518184015260208101905061011f565b50505050905090810190601f1680156101675780820380516001836020036101000a031916815260200191505b50995050505050505050505060405180910390f35b6102fe600480360360e081101561019257600080fd5b8101908080359060200190929190803590602001909291908035906020019092919080359060200190929190803590602001906401000000008111156101d757600080fd5b8201836020820111156101e957600080fd5b8035906020019184600183028401116401000000008311171561020b57600080fd5b91908080601f016020809104026020016040519081016040528093929190818152602001838380828437600081840152601f19601f8201169050808301925050505050505091929192908035906020019064010000000081111561026e57600080fd5b82018360208201111561028057600080fd5b803590602001918460018302840111640100000000831117156102a257600080fd5b91908080601f016020809104026020016040519081016040528093929190818152602001838380828437600081840152601f19601f82011690508083019250505050505050919291929080359060200190929190505050610554565b005b6103086107e5565b6040518082815260200191505060405180910390f35b6000806000806060806000600115156000808a815260200190815260200160002060070160009054906101000a900460ff161515141561054457600080898152602001908152602001600020600001546000808a8152602001908152602001600020600101600001546000808b8152602001908152602001600020600101600101546000808c8152602001908152602001600020600101600201546000808d81526020019081526020016000206004016000808e81526020019081526020016000206005016000808f815260200190815260200160002060060154828054600181600116156101000203166002900480601f01602080910402602001604051908101604052809291908181526020018280546001816001161561010002031660029004801561048e5780601f106104635761010080835404028352916020019161048e565b820191906000526020600020905b81548152906001019060200180831161047157829003601f168201915b50505050509250818054600181600116156101000203166002900480601f01602080910402602001604051908101604052809291908181526020018280546001816001161561010002031660029004801561052a5780601f106104ff5761010080835404028352916020019161052a565b820191906000526020600020905b81548152906001019060200180831161050d57829003601f168201915b505050505091509650965096509650965096509650610549565b600080fd5b919395979092949650565b6000151560008089815260200190815260200160002060070160009054906101000a900460ff1615151480156105d757503373ffffffffffffffffffffffffffffffffffffffff16600a60009054906101000a900473ffffffffffffffffffffffffffffffffffffffff1673ffffffffffffffffffffffffffffffffffffffff16145b1561076f576105e46107ef565b604051806060016040528088815260200187815260200186815250905087600260000181905550806002600101600082015181600001556020820151816001015560408201518160020155905050836002600401908051906020019061064b929190610810565b508260026005019080519060200190610665929190610810565b50816002600601819055506001600260070160006101000a81548160ff02191690831515021790555060026000808a81526020019081526020016000206000820154816000015560018201816001016000820154816000015560018201548160010155600282015481600201555050600482018160040190805460018160011615610100020316600290046106fb929190610890565b5060058201816005019080546001816001161561010002031660029004610723929190610890565b50600682015481600601556007820160009054906101000a900460ff168160070160006101000a81548160ff0219169083151502179055509050506001805401600181905550506107dc565b7fa84d6f19d533481889c639755abc36cc0923596d954a4b42276a37ee8e5cdd606040518080602001828103825260108152602001807f456c206964207961206578697374652e0000000000000000000000000000000081525060200191505060405180910390a1600080fd5b50505050505050565b6000600154905090565b60405180606001604052806000815260200160008152602001600081525090565b828054600181600116156101000203166002900490600052602060002090601f016020900481019282601f1061085157805160ff191683800117855561087f565b8280016001018555821561087f579182015b8281111561087e578251825591602001919060010190610863565b5b50905061088c9190610917565b5090565b828054600181600116156101000203166002900490600052602060002090601f016020900481019282601f106108c95780548555610906565b8280016001018555821561090657600052602060002091601f016020900482015b828111156109055782548255916001019190600101906108ea565b5b5090506109139190610917565b5090565b61093991905b8082111561093557600081600090555060010161091d565b5090565b9056fea165627a7a7230582027f68192195c284deb0283c499d8da93905493fbde3fc1682fce38e90d24be9d0029",
  "source": "pragma solidity ^0.5.1;\n\ncontract PrevencionDesastres {\n\n    struct Fecha {\n        uint day;\n        uint month;\n        uint year;\n    }\n        \n    struct Registro {\n        uint id;\n        Fecha fecha;\n        string latitud;\n        string longitud;\n        uint caudal;\n        bool creado;\n    }\n    \n    mapping (uint => Registro) registros;\n    uint cantidadRegistros = 0;\n    Registro registro;\n    address administrador;\n    \n    event mensajeError (string error);\n    \n    constructor () public {\n        administrador = msg.sender;\n    }\n    \n    function hacerRegistro(uint id, uint day, uint month, uint year, string memory latitud, string memory longitud, uint caudal) public {\n        if (registros[id].creado == false && administrador == msg.sender) {\n            Fecha memory fecha = Fecha(day, month, year); \n            registro.id = id;\n            registro.fecha = fecha;\n            registro.latitud = latitud;\n            registro.longitud = longitud;\n            registro.caudal = caudal;\n            registro.creado = true;\n            registros[id] = registro;\n            cantidadRegistros = cantidadRegistros+1;\n        } else {\n            emit mensajeError(\"El id ya existe.\");\n            revert();\n        }\n    }\n    \n   function consultarRegistro(uint id) public view returns(uint, uint , uint , uint , string memory , string memory , uint ) {\n        if (registros[id].creado == true) {\n            return(registros[id].id, registros[id].fecha.day, registros[id].fecha.month, registros[id].fecha.year, registros[id].latitud, registros[id].longitud, registros[id].caudal);\n        } else {\n            revert();\n        }\n    }\n\n    function getRegistros() public view returns (uint) {\n        return (cantidadRegistros);\n    }\n\n}",
  "sourcePath": "D:/William/Blockchain/PrevencionDesastres/contracts/PrevencionDesastres.sol",
  "compiler": {
    "name": "solc",
    "version": "0.5.8+commit.23d335f2.Emscripten.clang"
  },
  "schemaVersion": "3.0.16",
  "updatedAt": "2019-11-01T17:00:44.775Z",
  "devdoc": {
    "methods": {}
  },
  "userdoc": {
    "methods": {}
  }
}